:04000000FEEF7FF0A0
:101000000064656C6574653D2025640076616C3D07
:0F10100020252E326600696E66006E616E00004C
:10102000000E0001816F2FC082F030C083F031C00C
:1010300084F032C085F085BF22EF08F020EF08F081
:1010400036EF08F0010E816F82C001F083C002F01C
:1010500084C003F085C004F032EC1FF001C082F0C0
:1010600002C083F003C084F004C085F0000E0001CC
:10107000876F000E866F59C071F05AC072F08151AF
:10108000D8B445EF08F047EF08F05BEF08F0815166
:10109000D8A44DEF08F04FEF08F055EF08F0000E20
:1010A000676F2B0E666F59EF08F0000E676F2D0EFD
:1010B000666F66C081F082C001F083C002F084C018
:1010C00003F085C004F08AEC19F001040210D8A4E2
:1010D0006CEF08F06EEF08F09DEF08F00001815111
:1010E000D8B475EF08F077EF08F080EF08F081C012
:1010F00000F17107D8A07207000E876F010E866F8E
:10110000000E8625016E010E8721026E160E036EFB
:10111000D5EC1EF00001FD0E7127FF0E72232EC0CC
:101120000FF0000E106E010E116E71C012F072C041
:1011300013F072EC1DF005EF0DF082C001F083C0DA
:1011400002F084C003F085C004F08AEC19F001506D
:101150000210D8A4AEEF08F0B0EF08F0CEEF08F020
:1011600000018151D8B4B7EF08F0B9EF08F0C2EF31
:1011700008F081C000F17107D8A07207000E876FD8
:10118000010E866F000E8625016E010E8721026E0C
:101190001A0E036ED5EC1EF08AEF08F0000E000167
:1011A000886F000E896F800E8A6F3F0E8B6F000E66
:1011B000706F000E6F6F82C001F083C002F084C0B8
:1011C00003F085C004F0000E056E000E066E000EE2
:1011D000076E000E086E8FEC1CF0D8B0F2EF08F02E
:1011E000F4EF08F0D3EF09F001EF09F073C088F0D5
:1011F00074C089F075C08AF076C08BF000016F4B27
:10120000702B88C001F089C002F08AC003F08BC047
:1012100004F0000E056E000E066E200E076E410EE5
:10122000086E66EC0FF001C073F002C074F003C0EA
:1012300075F004C076F000017351825D016E745147
:101240008359026E75518459036E76518559046E27
:1012500066EC1EF004BE38EF09F0045003100210D3
:1012600009E1020E015CD8A038EF09F03AEF09F06D
:10127000F6EF08F073C01AF074C01BF075C01CF0D4
:1012800076C01DF082C01EF083C01FF084C020F025
:1012900085C021F008EC19F0D8A051EF09F053EF08
:1012A00009F0F6EF08F000018851825D016E895166
:1012B0008359026E8A518459036E8B518559046E8D
:1012C00066EC1EF004BE72EF09F004500310021029
:1012D00007E1020E015CD8B070EF09F072EF09F07F
:1012E000BAEF09F088C082F089C083F08AC084F028
:1012F0008BC085F0D3EF09F088C001F089C002F0FF
:101300008AC003F08BC004F0000E056E000E066E5E
:10131000200E076E410E086E8DEC11F001C088F0B2
:1013200002C089F003C08AF004C08BF000016F078F
:10133000D8A070078851825D016E89518359026E71
:101340008A518459036E8B518559046E66EC1EF0E8
:1013500004BEB8EF09F004500310021007E1020EBA
:10136000015CD8B0B6EF09F0B8EF09F0BAEF09F0B8
:1013700072EF09F082C01AF083C01BF084C01CF029
:1013800085C01DF088C01EF089C01FF08AC020F003
:101390008BC021F008EC19F0D8A0D1EF09F0D3EF01
:1013A00009F07CEF09F033C069F069C06AF05CBEF7
:1013B000DCEF09F0DEEF09F0E4EF09F05BC062F06A
:1013C0005CC063F0E9EF09F0000E0001636F060EE8
:1013D000626F62C06DF063C06EF000016D4B6E2BEA
:1013E000660E6A19D8A4F7EF09F0F9EF09F019EFC2
:1013F0000AF070BF00EF0AF0FEEF09F00CEF0AF000
:10140000000E886F000E896F800E8A6F3F0E8B6F03
:10141000000E706F000E6F6F670E6919D8B413EF6E
:101420000AF015EF0AF019EF0AF06F516D277051AD
:101430006E23000E786F000E776F82C079F083C044
:101440007AF084C07BF085C07CF088C073F089C0DE
:1014500074F08AC075F08BC076F0AAEF0AF079C0FC
:1014600001F07AC002F07BC003F07CC004F088C0B9
:1014700005F089C006F08AC007F08BC008F08DEC3B
:1014800011F001C01AF002C01BF003C01CF004C030
:101490001DF0E5EC15F01AC07DF01BC07EF01CC0FD
:1014A0007FF01DC080F07DC01AF07EC01BF07FC0B1
:1014B0001CF080C01DF085EC18F01AC06BF01BC04A
:1014C0006CF079C01AF07AC01BF07BC01CF07CC0B5
:1014D0001DF07DC005F07EC006F07FC007F080C023
:1014E00008F088C001F089C002F08AC003F08BC008
:1014F00004F066EC0FF001C01EF002C01FF003C044
:1015000020F004C021F091EC1EF01AC079F01BC04D
:101510007AF01CC07BF01DC07CF088C001F089C04F
:1015200002F08AC003F08BC004F0000E056E000EBE
:10153000066E200E076E410E086E8DEC11F001C094
:1015400088F002C089F003C08AF004C08BF000016B
:10155000774B782B6D51775D7851800A346E6E51E0
:10156000800A3458D8A0B7EF0AF0B9EF0AF02FEF8D
:101570000AF088C001F089C002F08AC003F08BC075
:1015800004F0000E056E000E066EA00E076E400EF3
:10159000086E66EC0FF001C07DF002C07EF003C063
:1015A0007FF004C080F079C01AF07AC01BF07BC0D5
:1015B0001CF07CC01DF07DC01EF07EC01FF07FC0FF
:1015C00020F080C021F008EC19F0D8B0EAEF0AF062
:1015D000ECEF0AF0F7EF0AF0000E00017D6F000E4D
:1015E0007E6F000E7F6F000E806F20EF0BF079C0D2
:1015F00001F07AC002F07BC003F07CC004F07DC033
:1016000005F07EC006F07FC007F080C008F08FECC8
:101610001CF0D8A00EEF0BF010EF0BF020EF0BF04A
:1016200000016BB116EF0BF018EF0BF020EF0BF091
:10163000000E7D6F000E7E6F000E7F6F000E806FBC
:1016400082C001F083C002F084C003F085C004F0C2
:101650007DC005F07EC006F07FC007F080C008F0B6
:1016600006EC0DF001C079F002C07AF003C07BF007
:1016700004C07CF079C01AF07AC01BF07BC01CF06B
:101680007CC01DF0000E056E000E066E200E076E6B
:10169000410E086E73C001F074C002F075C003F013
:1016A00076C004F066EC0FF001C01EF002C01FF01F
:1016B00003C020F004C021F008EC19F0D8A063EFBB
:1016C0000BF065EF0BF08EEF0BF000016F4B702B02
:1016D00073C001F074C002F075C003F076C004F06E
:1016E000000E056E000E066E200E076E410E086E8F
:1016F00066EC0FF001C073F002C074F003C075F027
:1017000004C076F0660E00016A19D8A48AEF0BF0C7
:101710008CEF0BF08EEF0BF06D4B6E2B73C088F0DF
:1017200074C089F075C08AF076C08BF06FC060F02D
:1017300070C061F0000E0001686F000E656F000E52
:10174000646F000E786F000E776F8CEF0CF079C02D
:1017500001F07AC002F07BC003F07CC004F088C0C6
:1017600005F089C006F08AC007F08BC008F08DEC48
:1017700011F001C01AF002C01BF003C01CF004C03D
:101780001DF0E5EC15F01AC07DF01BC07EF01CC00A
:101790007FF01DC080F07DC01AF07EC01BF07FC0BE
:1017A0001CF080C01DF085EC18F01BBEE3EF0BF0C1
:1017B0001B5007E10A0E1A5CD8B0E1EF0BF0E3EF23
:1017C0000BF0F3EF0BF07DC01AF07EC01BF07FC072
:1017D0001CF080C01DF085EC18F01AC06BF01BC027
:1017E0006CF0F8EF0BF0000E00016C6F090E6B6FE0
:1017F00000016851D8A4FFEF0BF001EF0CF029EFC6
:101800000CF061BF08EF0CF006EF0CF029EF0CF0C4
:10181000000E8625D96E010E8721DA6E2E0EDF6E40
:10182000864B872B7107D8A07207010E686F29EFCE
:101830000CF0000E8625D96E010E8721DA6E300E6F
:10184000DF6E864B872B7107D8A072076407D8A07C
:10185000650764516511D8A430EF0CF032EF0CF03D
:1018600019EF0CF0000E8625D96E010E8721DA6E75
:101870006B51300FDF6E864B872B7107D8A0720734
:1018800079C01AF07AC01BF07BC01CF07CC01DF040
:101890007DC005F07EC006F07FC007F080C008F074
:1018A00088C001F089C002F08AC003F08BC004F048
:1018B00066EC0FF001C01EF002C01FF003C020F064
:1018C00004C021F091EC1EF01AC079F01BC07AF030
:1018D0001CC07BF01DC07CF088C001F089C002F004
:1018E0008AC003F08BC004F0000E056E000E066E79
:1018F000200E076E410E086E8DEC11F001C088F0CD
:1019000002C089F003C08AF004C08BF000016007B8
:10191000D8A06107774B782B6D51775D7851800A9D
:10192000346E6E51800A3458D8B099EF0CF09BEFAA
:101930000CF0A9EF0CF087BFA7EF0CF0875109E17D
:101940004B0E865DD8A0A7EF0CF0A9EF0CF0A7EF27
:101950000BF0000E786F4F0E776F000E7725D96E63
:10196000010E7821DA6EDF6A000E346E010E356EDC
:101970008651345E8751355A77513424016E78513F
:101980003520026E000E036E010E046E86C005F057
:1019900087C006F039EC1EF000018651775D866F36
:1019A00087517859876F8151D8A4D9EF0CF0DCEFBB
:1019B0000CF0010EDDEF0CF0000E776F786B8151AB
:1019C000D8B4E5EF0CF0E7EF0CF0F3EF0CF086077E
:1019D000D8A08707000E8625D96E010E8721DA6E02
:1019E000600007F2DFFF7751715F7851725B2EC0A4
:1019F0000FF0000E8625106E010E8721116E71C04A
:101A000012F072C013F072EC1DF012000450800B43
:101A10000D6E045004240F6E03AE11EF0DF013EFA2
:101A20000DF014EF0DF00F800F50D8B41AEF0DF039
:101A30001CEF0DF031EF0DF00F28D8A422EF0DF0C0
:101A400024EF0DF02CEF0DF0000E016E000E026E73
:101A5000000E036E000E046E038E000E046E39EF4E
:101A60000DF0000E016E000E026E000E036E000EF1
:101A7000046E0850800B0E6E0D500E18D8B443EF54
:101A80000DF045EF0DF046EF0DF00D8C08500824D9
:101A90000E6E07AE4EEF0DF050EF0DF051EF0DF062
:101AA0000E800E50D8B457EF0DF059EF0DF06EEFD9
:101AB0000DF00E28D8A45FEF0DF061EF0DF069EF87
:101AC0000DF0000E056E000E066E000E076E000E85
:101AD000086E078E000E086E76EF0DF0000E056E94
:101AE000000E066E000E076E000E086E0F500E5CA4
:101AF000D8B07DEF0DF07FEF0DF0A6EF0DF00DAC3F
:101B000084EF0DF086EF0DF088EF0DF0800E0D1ACA
:101B10000FC010F00EC00FF010C00EF001C010F09A
:101B200005C001F010C005F002C010F006C002F0C0
:101B300010C006F003C010F007C003F010C007F09B
:101B400004C010F008C004F010C008F0000E106EC1
:101B50000F500EC009F00A6A095E000E0A5A0ABE4A
:101B6000BBEF0DF00A5009E11A0E095CD8A0BBEFDB
:101B70000DF0BDEF0DF0F4EF0DF001500210031069
:101B80000410D8A4C6EF0DF0C9EF0DF0010ECAEF96
:101B90000DF0000E106E000E016E000E026E000EB3
:101BA000036E000E046E0EC00FF0FDEF0DF010A0DE
:101BB000DCEF0DF0DEEF0DF0E4EF0DF0D89010301B
:101BC0000109106EE6EF0DF0D890103201A0EBEF96
:101BD0000DF0EDEF0DF0EEEF0DF0108E0434043249
:101BE0000332023201320F2A0E500F5CD8A0FBEFF5
:101BF0000DF0FDEF0DF0D7EF0DF00DBC02EF0EF084
:101C000004EF0EF044EF0EF00F50D8A40AEF0EF0E0
:101C10000CEF0EF016EF0EF0000E016E000E026ECD
:101C2000000E036E000E046E65EF0FF005500126E6
:101C300006500222075003220850042204A023EF7A
:101C40000EF025EF0EF0D1EF0EF010A02AEF0EF0FF
:101C50002CEF0EF032EF0EF0D89010300109106E1C
:101C600034EF0EF0D890103201A039EF0EF03BEFB8
:101C70000EF03CEF0EF0108E0434043203320232C8
:101C800001320F2AD1EF0EF00550015C06500258C8
:101C9000075003580450800A096E0850800A0958FA
:101CA000D8B055EF0EF057EF0EF082EF0EF0015066
:101CB000055C096E025006580A6E035007580B6EF9
:101CC000045008580C6EFF0E0924016EFF0E0A2006
:101CD000026EFF0E0B20036EFF0E0C20046E800EB2
:101CE0000D1A106C1050D8A478EF0EF07AEF0EF0A9
:101CF0008AEF0EF0010E0126000E022203220422BA
:101D00008AEF0EF00550015E0650025A0750035A42
:101D10000850045A0150021003100410D8A493EF85
:101D20000EF095EF0EF0CAEF0EF01050D8A49BEF16
:101D30000EF09DEF0EF0CAEF0EF0000E016E000ED9
:101D4000026E000E036E000E046E65EF0FF0D89069
:101D5000013602360336043610AEB1EF0EF0B3EFA3
:101D60000EF0B4EF0EF0018010A0B9EF0EF0BBEF53
:101D70000EF0BFEF0EF0D8801036C1EF0EF0D89005
:101D800010360F50D8B4C7EF0EF0C9EF0EF0CAEFFF
:101D90000EF00F0603AECFEF0EF0D1EF0EF0A7EF6F
:101DA0000EF0000E0E6E10AED8EF0EF0DAEF0EF061
:101DB000F2EF0EF010C009F07F0E0916D8B4E3EF71
:101DC0000EF0E5EF0EF0E9EF0EF0010E0E6EF2EF01
:101DD0000EF001A0EEEF0EF0F0EF0EF0F2EF0EF0CD
:101DE000E5EF0EF00E50D8B4F8EF0EF0FAEF0EF06B
:101DF00025EF0FF0010E0126000E0222032204221D
:101E000004A005EF0FF007EF0FF025EF0FF001C072
:101E100009F002C00AF003C00BF004C00CF00C344F
:101E20000C320B320A32093209C001F00AC002F04A
:101E30000BC003F00CC004F00F28D8B422EF0FF051
:101E400024EF0FF025EF0FF00F2A0F28D8B42BEF57
:101E50000FF02DEF0FF035EF0FF00F50D8A433EF48
:101E60000FF035EF0FF047EF0FF0000E016E000E90
:101E7000026E000E036E000E046E0F50D8A443EFE6
:101E80000FF045EF0FF047EF0FF0000E0D6E0FA0B3
:101E90004CEF0FF04EEF0FF051EF0FF0038E52EFBB
:101EA0000FF0039ED8900F30046E0DAE5AEF0FF076
:101EB0005CEF0FF05DEF0FF0048E01C001F002C087
:101EC00002F003C003F004C004F012000450800BC1
:101ED0000D6E04500424136E03AE71EF0FF073EF18
:101EE0000FF074EF0FF013801350D8B47AEF0FF0A7
:101EF0007CEF0FF08FEF0FF01328D8A482EF0FF0D4
:101F000084EF0FF08CEF0FF0000E016E000E026EEA
:101F1000000E036E000E046E038E97EF0FF0000E9E
:101F2000016E000E026E000E036E000E046E08506D
:101F3000800B0D1A08500824126E07AEA2EF0FF0A6
:101F4000A4EF0FF0A5EF0FF012801250D8B4ABEF52
:101F50000FF0ADEF0FF0C0EF0FF01228D8A4B3EFE1
:101F60000FF0B5EF0FF0BDEF0FF0000E056E000E95
:101F7000066E000E076E000E086E078EC8EF0FF09B
:101F8000000E056E000E066E000E076E000E086E47
:101F90001250D8B4CEEF0FF0D0EF0FF0D8EF0FF013
:101FA0001350D8A4D6EF0FF0D8EF0FF0E2EF0FF0F8
:101FB000000E016E000E026E000E036E000E046E27
:101FC0008CEF11F0075001026F00CCFF18F06F008A
:101FD000D0FF19F018500E6E0F6A106A116A19506E
:101FE000146E156A166A176A065002026F00CCFF5B
:101FF00018F06F00D0FF19F018500E26000E0F22B7
:102000001022112219501426000E15221622172212
:10201000055003026F00CCFF18F06F00D0FF19F0DD
:1020200018500E26000E0F221022112219501426CD
:10203000000E15221622172210C011F00FC010F04A
:102040000EC00FF00E6A055002026F00CCFF18F0B0
:102050006F00D0FF19F018500E2619500F22000EF5
:102060001022000E1122065001026F00CCFF18F062
:102070006F00D0FF19F018500E2619500F22000ED5
:102080001022000E112210C011F00FC010F00EC06F
:102090000FF00E6A055001026F00CCFF18F06F00C0
:1020A000D0FF19F018500E2619500F22000E1022E2
:1020B000000E1122075002026F00CCFF18F06F00D3
:1020C000D0FF19F01850142619501522000E1622B0
:1020D000000E1722065003026F00CCFF18F06F00AD
:1020E000D0FF19F01850142619501522000E162290
:1020F000000E1722075003026F00CCFF18F06F008C
:10210000D0FF19F01850096E19500A6E0B6A0C6A4C
:102110000BC00CF00AC00BF009C00AF0096A0950A4
:1021200014260A5015220B5016220C5017220EC0EE
:1021300009F00FC00AF010C00BF011C00CF0190E1E
:10214000A7EF10F0D8900C320B320A320932E82E89
:10215000A2EF10F0095014260A5015220B50162237
:102160000C50172210C011F00FC010F00EC00FF06D
:102170000E6A125013C009F00A6A0926000E0A22DC
:10218000820E0924186EFF0E0A20196EDDEF10F082
:10219000D890143615361636173611AED2EF10F029
:1021A000D4EF10F0D5EF10F01480D8900E360F3623
:1021B000103611361806D8A0190616AEE2EF10F048
:1021C000E4EF10F0C8EF10F0000E126E11AEEBEF5E
:1021D00010F0EDEF10F011EF11F0FF0E0E14096E7C
:1021E000FF0E0F140A6EFF0E10140B6E7F0E1114EB
:1021F0000C6E09500A100B100C10D8B402EF11F03D
:1022000004EF11F008EF11F0010E126E11EF11F052
:1022100014A00DEF11F00FEF11F011EF11F004EF1A
:1022200011F01250D8B417EF11F019EF11F03DEF83
:1022300011F0010E1426000E15221622172217A0E7
:1022400024EF11F026EF11F03DEF11F014C009F06A
:1022500015C00AF016C00BF017C00CF00C340C328D
:102260000B320A32093209C014F00AC015F00BC053
:1022700016F00CC017F0184A192A19BE48EF11F0D1
:10228000195008E11828D8A048EF11F04AEF11F0D2
:1022900054EF11F0000E146E000E156E800E166EC7
:1022A0007F0E176E82EF11F019BE61EF11F0195019
:1022B00006E11804D8B05FEF11F061EF11F06DEF97
:1022C00011F0000E146E000E156E000E166E000E4C
:1022D000176E000E0D6E82EF11F018C013F0FF0E96
:1022E0001416FF0E15167F0E1616000E171613A0E5
:1022F0007CEF11F07EEF11F07FEF11F0168ED89089
:102300001330176E0D50171214C001F015C002F0F3
:1023100016C003F017C004F012000450800B116EB9
:1023200004500424186E03AE98EF11F09AEF11F0E8
:102330009BEF11F018801850D8B4A1EF11F0A3EF63
:1023400011F0B8EF11F01828D8A4A9EF11F0ABEFF5
:1023500011F0B3EF11F0000E016E000E026E000ED0
:10236000036E000E046E038E000E046EC0EF11F0BB
:10237000000E016E000E026E000E036E000E046E63
:102380000850800B111A08500824196E07AECBEFC5
:1023900011F0CDEF11F0CEEF11F019801950D8B433
:1023A000D4EF11F0D6EF11F0EBEF11F01928D8A40B
:1023B000DCEF11F0DEEF11F0E6EF11F0000E056E2C
:1023C000000E066E000E076E000E086E078E000EE1
:1023D000086EF3EF11F0000E056E000E066E000E93
:1023E000076E000E086E0550061007100810D8A4DE
:1023F000FCEF11F0FEEF11F016EF12F0000E016E7F
:10240000000E026E000E036E000E046E800E0312AC
:102410007F0E04121150041201C001F002C002F03C
:1024200003C003F004C004F059EF13F01850D8A40F
:102430001CEF12F01EEF12F028EF12F0000E016EEA
:10244000000E026E000E036E000E046E59EF13F0C4
:10245000195018C009F00A6A095E000E0A5A7F0E68
:102460000924126E000E0A20136E01C00DF002C086
:102470000EF003C00FF004C010F0000E016E000E4D
:10248000026E000E036E000E046E000E146E000E3F
:10249000156E000E166E000E176E000E196E89EF87
:1024A00012F01950D8B457EF12F059EF12F070EF44
:1024B00012F0D8900D360E360F361036D890013601
:1024C00002360336043617AE68EF12F06AEF12F0E8
:1024D0006BEF12F00180D890143615361636173689
:1024E00005500D5C06500E5807500F5808501058F4
:1024F000D8A07DEF12F07FEF12F088EF12F0178C6A
:1025000005500D5E06500E5A07500F5A0850105ACB
:10251000192A190E19648FEF12F091EF12F051EF92
:1025200012F00D500E100F101010D8B49AEF12F0D8
:102530009CEF12F0B4EF12F01480B4EF12F0D890C8
:10254000013602360336043617AEA9EF12F0ABEFB0
:1025500012F0ACEF12F00180D89014361536163612
:1025600017361206D8A0130603AEB9EF12F0BBEF70
:1025700012F09FEF12F0000E196E17AEC2EF12F0BC
:10258000C4EF12F0E8EF12F0FF0E1414096EFF0E04
:1025900015140A6EFF0E16140B6E7F0E17140C6EB8
:1025A00009500A100B100C10D8B4D9EF12F0DBEF61
:1025B00012F0DFEF12F0010E196EE8EF12F001A039
:1025C000E4EF12F0E6EF12F0E8EF12F0DBEF12F0BA
:1025D0001950D8B4EEEF12F0F0EF12F014EF13F040
:1025E000010E0126000E02220322042204A0FBEFAA
:1025F00012F0FDEF12F014EF13F001C009F002C069
:102600000AF003C00BF004C00CF00C340C320B3297
:102610000A32093209C001F00AC002F00BC003F00F
:102620000CC004F0124A132A13BE1FEF13F013500C
:1026300008E11228D8A01FEF13F021EF13F02CEFC0
:1026400013F0000E136E1268000E016E000E026E83
:10265000000E036E000E046E13BE39EF13F013501C
:1026600006E11204D8B037EF13F039EF13F047EF5B
:1026700013F0000E136E000E126E000E016E000EAF
:10268000026E000E036E000E046E000E116E12C07C
:1026900018F018A04EEF13F050EF13F053EF13F0B3
:1026A000038E54EF13F0039ED8901830046E0AEF97
:1026B00012F012003750D96EDA6A6F007FFFF6FF12
:1026C000100EF76E0800F550250AD8A46AEF13F033
:1026D0006CEF13F09FEF14F03750D96EDA6ADF2AEF
:1026E000000E5A6E000E596E59C05DF05B685C6852
:1026F0003750D96EDA6A6F007FFFF6FF100EF76E63
:102700000800F5502E0AD8A488EF13F08AEF13F0D2
:1027100098EF13F03750D96EDA6ADF2A37C007F026
:1027200038C008F08CEC1BF007C05BF008C05CF010
:102730003750D96EDA6ADF50406E600003F1F6FF61
:10274000100EF76E0800F550640AD8B4AAEF13F023
:10275000ACEF13F0BBEF13F0600003F1F6FF100EC7
:10276000F76E0800F550690AD8A4B9EF13F0BBEF73
:1027700013F0D8EF13F03850D96EDA6A020EDF2664
:10278000DF5CD96EDA6A6F0078FF3BF06F0078FF8C
:102790003CF03750D96EDA6A4028DF6E36C017F049
:1027A0003BC018F03CC019F0C8EC17F0B1EF14F0C2
:1027B0003750D96EDA6ADF50406E600003F1F6FFE1
:1027C000100EF76E08006F00D4FF3FF0F3EF13F028
:1027D000402A0CEF14F06C0E3F6E0CEF14F0000E5C
:1027E0003F6E0CEF14F03F50396E3A6A3A50000ACF
:1027F000D8B4FDEF13F0EFEF13F039504C0AD8B412
:10280000E8EF13F02A0AD8B4EBEF13F00A0AD8B4B1
:10281000E8EF13F0EFEF13F0600003F1F6FF100E96
:10282000F76E0800F550660AD8A419EF14F01BEFF4
:1028300014F099EF14F04FEF14F03850D96EDA6AB3
:102840006F007CFF39F0040EDF263950D96EDA6A4A
:102850006F0078FF3BF06F0078FF3CF06F0078FF6F
:102860003DF06F0078FF3EF064EF14F03850D96E01
:10287000DA6A6F007CFF39F0040EDF263950D96E1A
:10288000DA6A6F0078FF3BF06F0078FF3CF06F0072
:1028900078FF3DF06F0078FF3EF064EF14F03F509A
:1028A000396E3A6A3A50000AD8B459EF14F064EF1E
:1028B00014F039504C0AD8B436EF14F0200AD8B4CA
:1028C0001DEF14F064EF14F03750D96EDA6A402827
:1028D000DF6E82EF14F036C02EF03BC02FF03CC00C
:1028E00030F03DC031F03EC032F0600003F1F6FF41
:1028F000100EF76E08006F00D4FF33F010EC08F0F4
:10290000B1EF14F0600003F1F6FF100EF76E08004F
:10291000F550396E3A6A3A50000AD8B492EF14F082
:1029200099EF14F03950660AD8B46BEF14F099EFB0
:1029300014F03750D96EDA6ADF2AB1EF14F037504D
:10294000D96EDA6A6F007FFFF6FF100EF76E08008F
:10295000F550016E026A36C003F0E3EC1BF099EF0C
:1029600014F01200C00EC26E000EC36E930EC46E41
:10297000000E3A01406F000E506F000E606F060EA1
:10298000526F000ECB6E000ECC6ECB96170EE76F1B
:10299000130E166F090EE56F0A0EE66F230E096F10
:1029A000240E0A6F140EE16F1F0E156F1E0E136FAB
:1029B000A00E3D01F26F800EF36F000EF46F060E55
:1029C000F66F820EF56F840E5D6F000E656F020E5E
:1029D000146FC00E156F000E186F000E126F000EF0
:1029E000136F020E1C6F640E196F34EC1DF0D6ECE1
:1029F0001FF0CB8A090E506E1E0E4F6EE40EE82EAD
:102A0000FED74F2EFCD7502EFAD700D03D01148FA1
:102A1000CB86040E186F010E126F000E136F168313
:102A2000980E116F17AB17EF15F019EF15F012EFA5
:102A300015F00F0E116F17AB20EF15F022EF15F008
:102A40001BEF15F01693CB96149FA40E0001D56FC3
:102A5000700ED66F950ED76F410ED86F090E506E5F
:102A60001E0E4F6EE40EE82EFED74F2EFCD7502ED2
:102A7000FAD700D03D01F289F7B341EF15F043EFEB
:102A800015F02EEF15F0D5C024F0D6C025F0D7C034
:102A900026F0D8C027F0000E296E010E286EE4EC57
:102AA0001CF0090E506E1E0E4F6EE40EE82EFED77F
:102AB0004F2EFCD7502EFAD700D0000E1B6E010E01
:102AC0001A6E39EC1CF01AC0D9F01BC0DAF01CC029
:102AD000DBF01DC0DCF0D6EC1FF0950E00018F6F0F
:102AE0000C0E906FD9C091F0DAC092F0DBC093F079
:102AF000DCC094F016EC1FF0010E046E010ED8EC51
:102B00001DF0950E056E4EEC1FF0520E506E2B0E02
:102B10004F6E000EE82EFED74F2EFCD7502EFAD760
:102B200000D0A5EC1DF0090E506E1E0E4F6EE40E87
:102B3000E82EFED74F2EFCD7502EFAD700D0000E2D
:102B4000026E010E016E09EC1AF001C009F002C01C
:102B50000AF0000E0ABEFF0E0B6E0C6E010EEEECBC
:102B600016F009C0DDF00AC0DEF00BC0DFF00CC0CB
:102B7000E0F0D6EC1FF0950E00018F6F010E906F04
:102B8000DDC091F0DEC092F0DFC093F0E0C094F0C1
:102B900016EC1FF0010E046E010ED8EC1DF0950E20
:102BA000056E4EEC1FF0520E506E2B0E4F6E000E47
:102BB000E82EFED74F2EFCD7502EFAD700D03D017D
:102BC000F2992EEF15F0FEEF7FF051C02AF052C0BF
:102BD0002BF053C02CF054C02DF01AC02AF01BC0AB
:102BE0002BF01CC02CF01DC02DF0810E1E6EFF0EB0
:102BF0001F6E2AC020F02BC021F02CC022F02DC067
:102C000023F0180E09EF16F0D89023322232213229
:102C10002032E82E04EF16F020501E24286E000EFD
:102C20001F20296E29BE1EEF16F0295009E1170E4C
:102C3000285CD8A01EEF16F020EF16F02AEF16F051
:102C40001AC01AF01BC01BF01CC01CF01DC01DF0E8
:102C5000EDEF16F029BE2FEF16F031EF16F0A1EFD1
:102C600016F028C01EF0FF0E1F6EFF0E206E7F0EA6
:102C7000216E000E226E1E6640EF16F048EF16F031
:102C800022342232213220321F321E2E3BEF16F028
:102C90001FC024F020C025F021C026F022C027F05C
:102CA00024502A141E6E25502B141F6E26502C14EF
:102CB000206E27502D14216E1E501F102010211041
:102CC000D8A465EF16F067EF16F069EF16F020EF65
:102CD00016F02AC01EF02BC01FF02CC020F02DC013
:102CE00021F0200E79EF16F0D890213220321F32D9
:102CF0001E32E82E74EF16F01E501F102010211007
:102D0000D8B485EF16F087EF16F08FEF16F0245049
:102D10002A2625502B2226502C2227502D22241CD7
:102D20001E6E251C1F6E261C206E271C216E1E5039
:102D30002A161F502B1620502C1621502D16E5EF69
:102D400016F02AC01EF02BC01FF02CC020F02DC0A2
:102D500021F0200EB1EF16F0D890213220321F3230
:102D60001E32E82EACEF16F01E501F10201021105E
:102D7000D8A4BDEF16F0BFEF16F0C9EF16F0000EA5
:102D80002A6E000E2B6E000E2C6E000E2D6EE5EFDF
:102D900016F0D8902A341E6E2B341F6E2C34206E01
:102DA0002D34216E1E501F1020102110D8B4DBEFDF
:102DB00016F0DDEF16F0E5EF16F0000E2A6E000EAD
:102DC0002B6E800E2C6EBF0E2D6E2AC01AF02BC0FB
:102DD0001BF02CC01CF02DC01DF01200116E115004
:102DE000D8B4F5EF16F0F7EF16F019EF17F00CBEA8
:102DF000FEEF16F0FCEF16F019EF17F009C00DF01A
:102E00000AC00EF00BC00FF00CC010F00D1E0E1E0D
:102E10000F1E101E0D2A000E0E220F2210220DC0B2
:102E200013F00EC014F00FC015F010C016F021EF13
:102E300017F009C013F00AC014F00BC015F00CC055
:102E400016F009500A100B100C10D8A42AEF17F036
:102E50002CEF17F036EF17F0000E096E000E0A6E19
:102E6000000E0B6E000E0C6EC7EF17F0960E126E72
:102E700040EF17F0122AD89016321532143213325E
:102E8000000E13140D6E000E14140E6E000E1514A9
:102E90000F6EFE0E1614106E0D500E100F10101047
:102EA000D8A455EF17F057EF17F03AEF17F065EF8A
:102EB00017F0122A010E1326000E142215221622D4
:102EC000D8901632153214321332000E13140D6ED0
:102ED000000E14140E6E000E15140F6EFF0E161455
:102EE000106E0D500E100F101010D8A47AEF17F0BE
:102EF0007CEF17F059EF17F084EF17F01206D89017
:102F0000133614361536163615BE89EF17F08BEFCB
:102F100017F093EF17F0020E126091EF17F093EF96
:102F200017F07EEF17F012B098EF17F09AEF17F046
:102F30009BEF17F0159ED890123212C00DF00E6A5A
:102F40000F6A106A0DC010F00F6A0E6A0D6A0D50FC
:102F500013120E5014120F50151210501612115059
:102F6000D8B4B5EF17F0B7EF17F0BFEF17F00CBEFE
:102F7000BEEF17F0BCEF17F0BFEF17F0168E13C0BF
:102F800009F014C00AF015C00BF016C00CF01200C6
:102F900019BECDEF17F0D0EF17F0010ED1EF17F0FB
:102FA000000E206E5CBED9EF17F0D7EF17F0DFEF01
:102FB00017F0000E1F6E010E1E6EE3EF17F05BC0E0
:102FC0001EF05CC01FF059C01CF05AC01DF020500C
:102FD000D8B4EDEF17F0EFEF17F006EF18F01C067E
:102FE000D8A01D062050D8A4F8EF17F0FAEF17F07C
:102FF00000EF18F0000E1B6E2B0E1A6E04EF18F087
:10300000000E1B6E2D0E1A6E1AC020F0000E226EDE
:103010004F0E216E000E01014F6F3FEF18F0210699
:10302000D8A02206000E2124D96E010E2220DA6ECD
:1030300018C001F019C002F0000E046E0A0E036EF3
:1030400034EC1BF001C007F002C008F086EC1FF062
:103050000750300FDF6E1E06D8A01F061C06D8A032
:103060001D0618C001F019C002F0000E046E0A0E11
:10307000036E73EC1AF001C018F002C019F022BE02
:103080004AEF18F0225008E12104D8A04AEF18F0C6
:103090004CEF18F062EF18F018501910D8A453EF45
:1030A00018F055EF18F00FEF18F01FBE62EF18F090
:1030B0001F5006E11E04D8B060EF18F062EF18F060
:1030C0000FEF18F02050D8B468EF18F06AEF18F03E
:1030D00076EF18F02106D8A02206000E2124D96E22
:1030E000010E2220DA6E600083F0DFFF17C00FF0C0
:1030F000000E2124106E010E2220116E1CC012F051
:103100001DC013F072EC1DF012001C341D34236E30
:103110002350D8A48EEF18F090EF18F09AEF18F023
:10312000000E1A6E000E1B6E000E1C6E000E1D6E41
:1031300007EF19F01AC01EF01BC01FF01CC020F0D2
:103140001DC021F0200EAAEF18F0D89021322032B5
:103150001F321E32E82EA5EF18F01E50226E1C8E74
:10316000FF0E1A16FF0E1B16FF0E1C16000E1D1664
:10317000960E235E23BEC1EF18F0BFEF18F0D7EF15
:1031800018F02350800A970FD8B0C9EF18F0CBEF92
:1031900018F0CDEF18F090EF18F0D8901D321C32D7
:1031A0001B321A32233ECDEF18F0EFEF18F01F0E4E
:1031B0002364DDEF18F0DFEF18F0E7EF18F090EF81
:1031C00018F0D8901A361B361C361D3623062350AD
:1031D000D8A4EDEF18F0EFEF18F0E1EF18F022505F
:1031E000D8B4F5EF18F0F7EF18F0FFEF18F01D1E48
:1031F0001C1E1B1E1A6C000E1B221C221D221AC034
:103200001AF01BC01BF01CC01CF01DC01DF01200EA
:10321000000E1A14226E000E1B14236E800E1C1456
:10322000246E7F0E1D14256E2250231024102510AD
:10323000D8A41DEF19F01FEF19F027EF19F0000EB9
:103240001A6E000E1B6E000E1C6E000E1D6E000E20
:103250001E14226E000E1F14236E800E2014246E86
:103260007F0E2114256E2250231024102510D8A47F
:103270003CEF19F03EEF19F046EF19F0000E1E6E0C
:10328000000E1F6E000E206E000E216E1DAE4BEF65
:1032900019F04DEF19F056EF19F01A6C1B1ED8B04B
:1032A0001B2A1C1ED8B01C2A800E1D5621AE5BEFB7
:1032B00019F05DEF19F066EF19F01E6C1F1ED8B003
:1032C0001F2A201ED8B0202A800E2156000E1A1A5E
:1032D000000E1B1A000E1C1A800E1D1A000E1E1A5C
:1032E000000E1F1A000E201A800E211A1E501A5CA2
:1032F0001F501B5820501C5821501D58D8B083EF28
:1033000019F085EF19F088EF19F0D89089EF19F0CE
:10331000D880120055C00BF056C00CF057C00DF00D
:1033200058C00EF001C00BF002C00CF003C00DF04D
:1033300004C00EF00BC005F00CC006F00DC007F085
:103340000EC008F0180EAAEF19F0D8900832073214
:1033500006320532E82EA5EF19F00550096E0A6A0B
:1033600009500A10D8A4B7EF19F0B9EF19F0D9EF46
:1033700019F0D8900B34056E0C34066E0D34076EC0
:103380000E34086E0550061007100810D8A4CBEFB5
:1033900019F0CDEF19F0D3EF19F0000E026E020E06
:1033A000016E08EF1AF0000E026E030E016E08EFB8
:1033B0001AF009280A10D8A4E0EF19F0E2EF19F08A
:1033C00004EF1AF00BC005F00CC006F00DC007F0BA
:1033D0000EC008F0090ED8900536063607360836B6
:1033E000E82EEBEF19F00550061007100810D8B4BE
:1033F000FCEF19F0FFEF19F0010E00EF1AF0000ECC
:10340000016E026A08EF1AF0000E026E040E016EE1
:103410001200CB86000E3D01186F030E126F000ED6
:10342000136F16831681148F01C003F002C004F0DD
:10343000040E056E043404320332052E1AEF1AF01E
:103440000350C00F116F17AB28EF1AF02AEF1AF0D4
:1034500023EF1AF010510138F00B116F17AB33EF57
:103460001AF035EF1AF02EEF1AF06F0040F407F063
:10347000116917AB3EEF1AF040EF1AF039EF1AF06E
:103480006F0040F408F0CCA448EF1AF04CEF1AF0AB
:10349000036A032A4DEF1AF0036A03460346CC5031
:1034A0000318FB0B0318CC6E3D0116911693CB96B7
:1034B000149F020E046EA00E036E920EE82EFED72D
:1034C000032EFCD7042EFAD700D008C003F0033A2D
:1034D0000F0E03160750100DF3500324066E06C09E
:1034E00001F0026A1200000E066E04BE7CEF1AF0B4
:1034F0007AEF1AF082EF1AF0036C041ED8B0042A97
:10350000010E066E02BE89EF1AF087EF1AF08FEFF8
:103510001AF0016C021ED8B0022A010E061A000E23
:10352000086E000E076E03500410D8B49AEF1AF01C
:103530009CEF1AF0C4EF1AF0010E056EA4EF1AF01A
:10354000D89003360436052A04AEA9EF1AF0ABEF83
:103550001AF0A0EF1AF0D890073608360350015C35
:1035600004500258D8A0B7EF1AF0B9EF1AF0BEEF26
:103570001AF00350015E0450025A0780D8900432BA
:103580000332052EABEF1AF00650D8B4CAEF1AF08A
:10359000CCEF1AF0D0EF1AF0076C081ED8B0082A4A
:1035A00007C001F008C002F01200CB86040E3D01F6
:1035B000186F020E126F000E136F1683148F03C064
:1035C00005F004C006F0040E076E0634063205321C
:1035D000072EE5EF1AF00550A00F116F17ABF3EFB0
:1035E0001AF0F5EF1AF0EEEF1AF001C005F002C084
:1035F00006F0040E076E063406320532072EFBEF86
:103600001AF00350100DF3500524116F17AB0BEF98
:103610001BF00DEF1BF006EF1BF00138F00B116FE4
:1036200017AB15EF1BF017EF1BF010EF1BF0CBAA39
:103630001CEF1BF020EF1BF0056A052A21EF1BF0A1
:10364000056A053A0546CB500518DF0B0518CB6E09
:103650003D011693CB96149FD00E056ECA0EE82E30
:10366000FED7052EFCD71200000E066E02BE3DEFFF
:103670001BF03BEF1BF043EF1BF0016C021ED8B0B8
:10368000022A010E066E04BE4AEF1BF048EF1BF043
:103690004EEF1BF0036C041ED8B0042A0350041034
:1036A000D8B455EF1BF057EF1BF07BEF1BF0010E6A
:1036B000056E5FEF1BF0D89003360436052A04AE82
:1036C00064EF1BF066EF1BF05BEF1BF00350015C37
:1036D00004500258D8A06FEF1BF071EF1BF075EF8C
:1036E0001BF00350015E0450025AD890043203329A
:1036F000052E66EF1BF00650D8B481EF1BF083EF68
:103700001BF087EF1BF0016C021ED8B0022A01C02B
:1037100001F002C002F01200000E0B6E000E0A6EE5
:103720000750D96EDA6A6F007FFFF6FF100EF76E52
:103730000800F5502A0AD8A4A0EF1BF0A2EF1BF056
:10374000CAEF1BF00750D96EDA6ADF2A0850D96E2B
:10375000DA6A020EDF26DF5CD96EDA6A6F0078FF64
:103760000AF06F0078FF0BF0DEEF1BF00AC001F0EB
:103770000BC002F0000E046E0A0E036EA0EC1FF0E8
:10378000095001240A6E000E02200B6E0750D96EFC
:10379000DA6ADF2A0750D96EDA6A6F007FFFF6FF18
:1037A000100EF76E0800F550D00F096E090E09646F
:1037B000DCEF1BF0DEEF1BF0B6EF1BF00AC007F0EA
:1037C0000BC008F012000350D8B4E9EF1BF0EBEF88
:1037D0001BF0F3EF1BF00350D8A4F1EF1BF0F3EF55
:1037E0001BF0F8EF1BF00150DDEC1FF038EF1CF080
:1037F0000350D96EDA6A0A0ED926DE50DE10D8B42C
:1038000004EF1CF006EF1CF01FEF1CF00350D96E04
:10381000DA6A0A0ED9260350E16EE26A030EE12647
:10382000DE50E65CE650800A086EDE50800A0858DA
:10383000D8B01DEF1CF01FEF1CF038EF1CF0035048
:10384000D96EDA6A030ED926DF50046E0350D96EA2
:10385000DA6ADF500424D96EDA6A600007F0DFFF0D
:103860000350D96EDA6A030ED926DE2A000EDD2255
:1038700012001AC001F01BC002F009EC1AF001C0DE
:1038800028F002C029F0010E1A24016E000E1B2040
:10389000026E09EC1AF001C02AF002C02BF02A5087
:1038A0001F6E1E6A28501E102C6E29501F102D6E80
:1038B0002CC009F02DC00AF0000E0ABEFF0E0B6EE0
:1038C0000C6E010EEEEC16F009C020F00AC021F0DB
:1038D0000BC022F00CC023F020C001F021C002F088
:1038E00022C003F023C004F0000E056E000E066E29
:1038F000C80E076E420E086E8DEC11F001C024F068
:1039000002C025F003C026F004C027F024C01AF03E
:1039100025C01BF026C01CF027C01DF01200000EB1
:103920000114096E000E02140A6E800E03140B6E51
:103930007F0E04140C6E09500A100B100C10D8A442
:10394000A4EF1CF0A6EF1CF0AEEF1CF0000E016E11
:10395000000E026E000E036E000E046E000E0514C3
:10396000096E000E06140A6E800E07140B6E7F0E91
:1039700008140C6E09500A100B100C10D8A4C3EFD9
:103980001CF0C5EF1CF0CDEF1CF0000E056E000E14
:10399000066E000E076E000E086E055001180FE14E
:1039A000065002180CE10750031809E108500418EA
:1039B000D8B4DDEF1CF0DFEF1CF0E2EF1CF0D89084
:1039C000E3EF1CF0D8801200000E056E000E066EAC
:1039D000C80E076E420E086E24C001F025C002F02A
:1039E00026C003F027C004F066EC0FF001C01AF007
:1039F00002C01BF003C01CF004C01DF085EC18F0E1
:103A00001AC030F01BC031F030502C6E2D6A2CC023
:103A100001F02DC002F028C003F029C004F0D5EC5D
:103A20001AF031C02AF02B6A2ABE2B682A502E6E5B
:103A30002F6A284A292AD00E2A6ECA0EE82EFED7EF
:103A40002A2EFCD72EC001F02FC002F028C003F0B0
:103A500029C004F0D5EC1AF0D00E2A6ECA0EE82E5A
:103A6000FED72A2EFCD71200000E0BEC1EF0020E21
:103A7000056EA00E046E920EE82EFED7042EFCD723
:103A8000052EFAD700D0030EC6EC1FF0680E046EA8
:103A9000E40EE82EFED7042EFCD700D0030EC6ECB1
:103AA0001FF0E50E046E910EE82EFED7042EFCD713
:103AB0000000030EC6EC1FF0020EC6EC1FF0020E53
:103AC000C6EC1FF0080EC6EC1FF0000EC6EC1FF08F
:103AD0000C0EC6EC1FF0000EC6EC1FF0060EC6EC76
:103AE0001FF0120013BE79EF1DF077EF1DF07DEF90
:103AF0001DF0000E136E000E126E000E166E000EFC
:103B0000156E8DEF1DF0000E026E200E016E0FC0BF
:103B100003F0E3EC1BF0154A162A1250155C165000
:103B2000800A146E1350800A1458D8A09AEF1DF022
:103B30009CEF1DF083EF1DF010C009F011C00AF0DA
:103B40000FC00BF0F6EC1EF01200CB86000E3D010C
:103B5000186F010E126F000E136F1683148F900EE4
:103B6000116F17ABB6EF1DF0B8EF1DF0B1EF1DF000
:103B70001693CB96149FCBA8C0EF1DF0C4EF1DF099
:103B8000016A012AC5EF1DF0016A013ACB50011804
:103B9000EF0B0118CB6E090E026E1E0E016EE40EC5
:103BA000E82EFED7012EFCD7022EFAD700D0120045
:103BB000056E0504D8A4DFEF1DF0E1EF1DF0F2EF74
:103BC0001DF004507F0F086E08380F0B066E08506A
:103BD0000F0B076E0650C6EC1FF00750C6EC1FF027
:103BE0000AEF1EF0020E0518D8A4F9EF1DF0FBEF46
:103BF0001DF00AEF1EF00450BF0F086E08380F0BBF
:103C0000066E08500F0B076E0650C6EC1FF00750EB
:103C1000C6EC1FF01200016E01A011EF1EF013EFB1
:103C20001EF016EF1EF0CA8417EF1EF0CA9401A210
:103C30001CEF1EF01EEF1EF021EF1EF0CA8622EFD1
:103C40001EF0CA9601A427EF1EF029EF1EF02CEFFC
:103C50001EF0CA882DEF1EF0CA9801A632EF1EF0A2
:103C600034EF1EF037EF1EF0CA8A38EF1EF0CA9A02
:103C7000120003C00AF004C00BF001C008F002C03B
:103C800009F058EF1EF060002BF0D9FF60002FF014
:103C9000DAFFDF50076E0A4A0B2A600023F0D9FFD3
:103CA000600027F0DAFF60001FF0DFFF084A092AF2
:103CB0000506D8A00606052806E10628D8A463EF65
:103CC0001EF065EF1EF043EF1EF0120004BE6BEF16
:103CD0001EF06DEF1EF077EF1EF001C001F002C084
:103CE00002F003C003F004C004F090EF1EF001C026
:103CF00005F002C006F003C007F004C008F0051E7E
:103D0000061E071E081E052A000E0622072208228C
:103D100005C001F006C002F007C003F008C004F0BF
:103D20001200000E1E1A000E1F1A000E201A800E1E
:103D3000211A1AC001F01BC002F01CC003F01DC004
:103D400004F01EC005F01FC006F020C007F021C01F
:103D500008F006EC0DF001C01AF002C01BF003C021
:103D60001CF004C01DF012008DC041F0C0EF1EF029
:103D70008CC036F0410E376E8EC038F05AEC13F01E
:103D8000600007F1F6FF100EF76E0800F55000090D
:103D9000D8A4CDEF1EF0CFEF1EF0B8EF1EF0000E4E
:103DA00000018D6F000E8C6F120001C005F002C083
:103DB00006F0032A0304046E600013F0F6FF100EF1
:103DC000F76E600017F0D9FF60001BF0DAFF054ABC
:103DD000062A08006F00D7FFDFFFDF50D8A4F3EFFB
:103DE0001EF0F5EF1EF0D9EF1EF01200000E0E6E61
:103DF000000E0D6E05EF1FF00CC001F0026A0BC043
:103E000003F0E3EC1BF00D4A0E2A0D500924D96E85
:103E10000E500A20DA6EDF500C6E0C50D8A413EF4F
:103E20001FF015EF1FF0FCEF1EF01200910E426E16
:103E30008FC043F0000E476E000E466E000E4E6EB1
:103E4000000E4D6E430E00018C6F90C08DF0420E3F
:103E50008E6FB4EC1EF000018F514624D96EDA6AE1
:103E6000DF6A12000150021003100410D8B43BEFB7
:103E70001FF03DEF1FF045EF1FF0000E011A000E7E
:103E8000021A000E031A800E041A01C001F002C0CB
:103E900002F003C003F004C004F01200000E076E2D
:103EA000000E066E5DEF1FF005500624D96EDA6A2B
:103EB000DF506AEC1FF0064A072A05500624D96E27
:103EC000DA6ADF50D8A467EF1FF069EF1FF054EFF4
:103ED0001FF01200046E04500F0B026E0450F00B22
:103EE000036ECA8003380F0B0BEC1EF0CA82D50E8E
:103EF000E82EFED70000CA9202500BEC1EF0CA82D8
:103F0000D50EE82EFED70000CA92120008BE8BEF35
:103F10001FF08DEF1FF093EF1FF007C007F008C0F0
:103F200008F09FEF1FF007C009F008C00AF0091E53
:103F30000A1E094A0A2A09C007F00AC008F012003E
:103F4000015003026F00CCFF05F06F00D0FF06F0B8
:103F500001500402F350062602500302F3500626D5
:103F600005C001F006C002F0120000EE00F1500E94
:103F7000EE6AE806FDE100EE51F00D0EEE6AE8068D
:103F8000FDE1000EF86E0001B2EF14F0036ECA906E
:103F900003500BEC1EF0CA82540E026E1C0EE82E6B
:103FA000FED7022EFCD700D0CA921200000EC6EC3B
:0C3FB0001FF0010EC6EC1FF01200120002
:04FFFC00B5EF1FF04E
:020000040030CA
:0A0000008CFDE7F79FFFFFDFFFFF15
:00000001FF
